:020000040800F2
:1000000058100020DD010008C54F000875340008B5
:10001000F14E00080D110008F55F00080000000017
:100020000000000000000000000000001154000863
:100030007513000800000000C55200084957000869
:10004000F7010008F7010008F7010008F7010008B0
:10005000F7010008F7010008F7010008F7010008A0
:10006000F7010008F7010008F7010008F701000890
:10007000F7010008F7010008F7010008F701000880
:10008000F7010008F7010008F7010008F701000870
:10009000F7010008F7010008F7010008F701000860
:1000A000F7010008F7010008F7010008F701000850
:1000B000F7010008F7010008F7010008F701000840
:1000C000F7010008F7010008F7010008F701000830
:1000D000F7010008E95E0008F7010008F7010008D1
:1000E000F7010008F7010008F7010008F701000810
:1000F000F7010008F7010008F7010008F701000800
:10010000F7010008F7010008F7010008F7010008EF
:10011000F7010008F7010008F7010008F7010008DF
:10012000F7010008ED110008F9110008F7010008B7
:10013000F70100080000000000000000F7010008BF
:10014000F7010008F7010008F7010008F7010008AF
:10015000F70100080512000811120008F701000855
:10016000F7010008F7010008F7010008F70100088F
:10017000F7010008F7010008F7010008000000007F
:1001800000000000F701000800000000000000006F
:10019000F70100080000000000000000F70100085F
:1001A000000000000000000000000000F70100084F
:1001B000F7010008F7010008F7010008F70100083F
:1001C000F7010008DFF810D000F0AEFB0048004750
:1001D00079730008AFF3008058100020064880476C
:1001E00006480047FEE7FEE7FEE7FEE7FEE7FEE71C
:1001F000FEE7FEE7FEE7FEE7ED570008C501000851
:100200002DE9F05F0546002092469B46884606464B
:10021000814640241BE0284641464746224600F0DE
:1002200058FA53465A46C01A914110D311461846FF
:10023000224600F03FFA2D1A67EB01084F4622468E
:100240000120002100F036FA17EB00094E41201E74
:10025000A4F10104DFDC484631462A464346BDE8A6
:10026000F09F2DE9F0410024061B254671F10006A0
:1002700005DA01240027D0EB070067EB0101161E09
:1002800073F1000605DA0027D2EB0702012567EBC0
:100290000303FFF7B5FF86460E4617469C46AC4261
:1002A00004D00025D0EB050E65EB010624B100203B
:1002B000D2EB000760EB030C704631463A466346CA
:1002C000BDE8F08140EA01039B0703D009E008C9BB
:1002D000121F08C0042AFAD203E011F8013B00F80B
:1002E000013B521EF9D27047D2B201E000F8012B57
:1002F000491EFBD270470022F6E710B513460A46A6
:1003000004461946FFF7F0FF204610BD421C10F8C6
:10031000011B0029FBD1801A70472DE9FE4F804652
:1003200081EA0300C00F0C46009021F0004123F049
:100330000045B8EB0200A94105D24046214690464F
:100340001C460B46024623F00040104347D0270DC1
:10035000C7F30A00C3F30A510290401A01904028E3
:100360006BDAC3F3130040F4801B0098924620B16F
:100370000023D2EB030A63EB0B0B01985946C0F143
:100380004002504600F096F906460D465046594642
:10039000019A00F0AEF910EB08006141002487EAF1
:1003A000115284EAE7731A4340D0009A62B3019A6B
:1003B000012A4FEA075215DC001B61EB02014FF0E6
:1003C000004202EA0752CDE90042001C41F58011CB
:1003D00032462B4600F00EFA03B0BDE8F08F4046DF
:1003E0002146F9E7001B61EB0201001C41F5801377
:1003F00000185B412018A2F5001747EB030140EA03
:10040000D570B6196D4111E06D084FEA360645EA20
:10041000C0754FEA0752001B61EB0201001C41F559
:10042000801149084FEA30000019514132462B46ED
:1004300003B0BDE8F04F00F0CEB9009801224000B3
:100440000023D0EB020263EBE073009821464FEAF1
:10045000E074B8EB000061EB0401E9E783F00043CE
:100460005BE781F0004158E72DE9FE4F81EA030484
:1004700004F0004421F0004100944FF0000B23F001
:10048000004350EA01045ED052EA03045BD0C3F398
:100490000A54C1F30A552C44A4F2F3340194A0FB8E
:1004A0000254C1F3130141F48011C3F3130343F465
:1004B000801301FB024400FB034E840A970A44EABE
:1004C000815447EA8357A4FB076802958D0A05FB10
:1004D00007854FEA932C04FB0C542705029D4FEA35
:1004E000065847EA1637B5EB08056EEB070C870E82
:1004F000920E47EA811742EA8312A7FB0201B6EB8C
:100500000B0164EB00042B0D43EA0C335E1844EB43
:100510001C50DA465146E7FB0201C5F313044FEACB
:100520000B3343EA14534FEA0432019C43EA0603B7
:10053000A4F10C040294009CCDE900B400F05AF937
:1005400003B0BDE8F08F00200146F9E72DE9F04D3A
:1005500081EA030404F0004B21F0004514464FF0FB
:10056000000A23F0004150EA050220D054EA0102BB
:100570001DD0C5F30A570246C5F31303C1F3130098
:10058000C1F30A5640F4801543F48013A7EB060824
:10059000101BD64608F2FD3873EB050002D308F1B4
:1005A000010801E092185B41B8F1000F03DA002066
:1005B0000146BDE8F08D00204FF4801106468446C8
:1005C0000EE0171B73EB050705D3121B63EB050346
:1005D00006434CEA010C49084FEA300092185B418F
:1005E00050EA0107EDD152EA030012D082EA04007A
:1005F00083EA0501084305D0101BAB4106D2012256
:10060000002306E000224FF0004302E06FF00102F9
:1006100053101AEB06004CEB085110EB0A0041EBAB
:100620000B01BDE8F04D00F0D6B800F0004230F00C
:1006300000400AD0C10D01F56071C0F3160042EA16
:100640000151C2084007114370470020014670471E
:1006500001F0004330B421F0004150EA010206D01D
:100660000A0DA2F56072C1F31301002A02DC30BC4E
:1006700000207047440F44EAC104C100E01830BCB8
:1006800000EBC25000F047B830B50B4601460020E1
:100690002022012409E021FA02F59D4205D303FA44
:1006A00002F5491B04FA02F52844151EA2F10102C5
:1006B000F1DC30BD202A04DB203A00FA02F10020F0
:1006C00070479140C2F1200320FA03F31943904090
:1006D0007047202A04DB203A21FA02F000217047FB
:1006E00021FA02F3D040C2F120029140084319469A
:1006F0007047202A06DBCB17203A41FA02F043EA82
:10070000E07306E041FA02F3D040C2F120029140CA
:100710000843194670470029A8BF7047401C49008C
:1007200008BF20F00100704710B4B0FA80FC00FA56
:100730000CF050EA010404BF10BC704749B1CCF181
:10074000200421FA04F411FA0CF118BF012121430D
:100750000843A3EB0C01CB1D4FEA00614FEA1020C8
:1007600042BF002010BC704700EBC350104400296A
:10077000A4BF10BC7047401C490008BF20F0010016
:1007800010BC7047F0B400F0004221F0004120F0AE
:100790000040CE0DC30DC1F3160141F40001C0F3BA
:1007A00016004C42154640F40000761E09E010EB9E
:1007B000440002D582F0004240428842F7D840000F
:1007C0005B1EB342F9DA18B1F0BC0021FFF7ACBFF1
:1007D0002846F0BC704710B5141E73F1000408DA07
:1007E000401C41F1000192185B411A4301D120F0F5
:1007F000010010BD2DE9F04D92469B4611B1B1FAB2
:1008000081F202E0B0FA80F220329046FFF752FF08
:1008100004460F4640EA0A0041EA0B0153465A4695
:10082000084313D0114653EA010019D0C8F1400221
:100830005046FFF74EFF05460E4650465946424683
:10084000FFF738FF084305D0012004E02046394671
:10085000BDE8F08D0020054346EAE0762C4337439F
:100860000A986305E40AA0EB08000022FD0A44EAA6
:1008700047540A3002D500200146E9E70105101966
:100880006941DDE9084500196941BDE8F04DA2E77D
:10089000C1F30A52C1F3130140F2FF3341F4801156
:1008A0009A4202DA00200146704740F233439A42EE
:1008B000A2F2334202DC5242FFF70BBFFFF7FABE4F
:1008C00030B5041E71F1000404DB4FF000444042D7
:1008D00064EB0101141E73F1000405DB1C464FF0AC
:1008E0000043524263EB0403994208BF904230BD7B
:1008F000002801DBC0F10040002901DBC1F100410B
:10090000814202D24FF0004004E04FF0005001D18C
:100910004FF0C0404FEA2062EFF3008162F31F61A5
:1009200081F3008870470000064C074D06E0E06840
:1009300040F0010394E8070098471034AC42F6D326
:10094000FFF744FCE87700080878000870B58C18B9
:1009500010F8015B15F0070301D110F8013B2A11D3
:1009600006D110F8012B03E010F8016B01F8016BC0
:100970005B1EF9D12B0705D40023521E0DD401F8BC
:10098000013BFAE710F8013BCB1A921C03E013F885
:10099000015B01F8015B521EF9D5A142D8D30020BA
:1009A00070BD0000B0B5B0F800C00B889C4553D1B5
:1009B00045884B889D424FD113889C454CD1538824
:1009C0009D4249D143684968506805FB0CFC0022F0
:1009D000B2EB9C0F30D04FEA9C0200BF93ED000AAF
:1009E00091ED001A03F1100E30EE010A80ED000ABD
:1009F00093ED010A91ED011A01F1100430EE010AA4
:100A000080ED010A93ED020A91ED021A00F1100542
:100A100030EE010A80ED020A93ED030A91ED031A0C
:100A2000013A30EE010A80ED030A7346284621465A
:100A3000D4D12146284673461CF003020AD000BFD9
:100A4000B3EC010AB1EC011A013A30EE010AA0EC54
:100A5000010AF5D1002000E0FD2040B2B0BD0180C8
:100A600042804360704700002DE9F04F81B02DEDCA
:100A7000028B8EB0B0F800C0B0F802A0D44540F0B0
:100A80003A810B88FD229C4540F036814F88BB425D
:100A900040F0328140689FEDB08ABCF1000F0090B9
:100AA00000F031814C686FF0030000EB8C090027E7
:100AB00000266546CDF828C0204609940A98401BB8
:100AC00008D0B1002046FFF716FC3846013004F18B
:100AD0000404FBD304F1040BB5F101084FF07E5080
:100AE000206012D0A9EB86015846FFF704FC0120D4
:100AF0005C4600BF0130854204F10404FAD101369E
:100B0000013FB8F1000F4546D8D1DDF828C0BCF14F
:100B1000000F00F0F8804FEACA00043002900998F4
:100B2000009900EB8A00C0F10009042000EB8A0064
:100B3000ACF1010801EB8A054FEA8A03019001F14B
:100B4000040B4FF0000E0F46564600200A46049054
:100B5000039300BF0EFB0AF002EB800191ED000A47
:100B60000C910999B5EE400AF1EE10FA01EB800004
:100B70000D90CDF82080CDE906950B922ED10EF187
:100B8000010060450DD20020414600BF2A1892EDB9
:100B9000000AB5EE400AF1EE10FA06D10139184408
:100BA000F4D10498012817D0D4E0A0EB090000216B
:100BB00057F82130146842F8043B47F821400131CE
:100BC0008E42F5D10D9A51461368046840F8043BF3
:100BD000013942F8044BF7D1012004900C99AAEB9B
:100BE0000E0991ED008AB9F1010F4FF07E500860B7
:100BF0000DD00120594600BF91ED000A013080EE72
:100C0000080A864281ED000A01F10401F4D10D9930
:100C10005046CDF814B000BF91ED000A013880EEC7
:100C2000080AA1EC010AF7D1DDF82C800998A9F196
:100C3000010B0022654600BF724505D108EB890310
:100C400000EB8A0036E000BF0C9998ED008A91ED28
:100C5000000ABBF1000F28EE000A38EE400A88EDCA
:100C6000000A17D00123042107EB010C08EB010453
:100C70009CED000A94ED001A28EE000A013331EED3
:100C8000400A9E4201F1040184ED000AECD108EB18
:100C9000010301E008F104030D9C5146B4EC011A74
:100CA00090ED000A28EE011A30EE410AA0EC010A8C
:100CB0000139F3D103EB8E08013D02F10102BBD1F2
:100CC000079D02980B9ADDF820800544039BDDF810
:100CD00018900198DDF814B0DDF828C00432013E08
:100CE0000EF1010EA8F10108A9EB030907448344A2
:100CF0007FF430AF09E0FD2250B20EB0BDEC028BA4
:100D000001B0BDE8F08F00200490B5EE408AF1EE0E
:100D100010FA4FF00002EFD104980128ECD00AFB42
:100D20000CF14FF000004FF0000271B1009B00BFCA
:100D300093ED000AB5EE400AF1EE10FA05D101324A
:100D4000914203F10403F3D10A468A4208BF6FF0CF
:100D50000400D2E7FB22CFE7000000002DE9F04FAE
:100D600085B047880B889F4240F08480B0F800B07F
:100D700013889B4540F07E80B1F802E053889E4581
:100D800078D1D0F80480506849680190BC0827F0F9
:100D9000030008EB800604FB0EF09FED390A07F014
:100DA000030C029101EB00104FEA8E02002100902B
:100DB000CDE903E70198DDF808A0009B00EB81096D
:100DC000B0EE401A5746404674B355462746404653
:100DD000B0EE401A95ED002A90ED003A154490EDE2
:100DE000014A23EE022A95ED003A154490ED025A8D
:100DF00031EE021A24EE032A95ED003A154490EDE7
:100E0000036A31EE021A25EE032A95ED003A31EE1F
:100E1000021A26EE032A31EE021A013F00F11000F9
:100E20001544D7D11F463046BCF1000F0CD06546A3
:100E300090ED002A97ED003A043022EE032A31EEBD
:100E4000021A013D1744F3D1A9EC011ABEF1010EBB
:100E50000AF1040A03F10403B2D1DDF80CE0049FA7
:100E6000714408EB8708BBF1010B06EB8706A1D1A3
:100E7000002000E0FD2040B205B0BDE8F08F00BFCB
:100E800000000000B0B5B0F800C00B889C4553D1FD
:100E900045884B889D424FD113889C454CD153883F
:100EA0009D4249D143684968506805FB0CFC00220B
:100EB000B2EB9C0F30D04FEA9C0200BF93ED000ACA
:100EC00091ED001A03F1100E30EE410A80ED000A98
:100ED00093ED010A91ED011A01F1100430EE410A7F
:100EE00080ED010A93ED020A91ED021A00F110055E
:100EF00030EE410A80ED020A93ED030A91ED031AE8
:100F0000013A30EE410A80ED030A73462846214635
:100F1000D4D12146284673461CF003020AD000BFF4
:100F2000B3EC010AB1EC011A013A30EE410AA0EC2F
:100F3000010AF5D1002000E0FD2040B2B0BD000064
:100F40002DE9F04FB0F800A04A88924545D142887B
:100F50000B889A4241D1D1F804C046684FEA920802
:100F600002F003094FEA0A1E4FEA8A014FF0000B14
:100F7000624600BFB8F1000F1AD01546474600BFC1
:100F8000336828462B6073680D444350B3686C186F
:100F90006B50F56806F1100366186550013F06EBCB
:100FA00001051E46ECD100EB0E071E4602E000BF15
:100FB0000CEB8B07B9F1000F06D0484656F8043BFE
:100FC00001383B600F44F9D10BF1010BBAF1010A72
:100FD00002F10402CED1002000E0FD2040B2BDE8C5
:100FE000F08F0000464910B54A6822F440324A604A
:100FF0004A6843681A434A6001684A6822F480726A
:101000004A6001684A68036942EA03224A6001684B
:101010004A6822F040724A6001684A6883681A434D
:101020004A6001688A6822F400628A6001688A68FE
:10103000C3681A438A60816A6FF07062D1420168A6
:101040008A6822F070628A6001688A680CD0836ABC
:101050001A438A6001688A6822F040528A600168F7
:101060008A68C36A1A4301E022F040528A6001682C
:101070008A6822F002028A6001688A68037E42EA76
:1010800043028A6090F82010002901684A680FD056
:1010900042F400624A6001684A6822F460424A6091
:1010A00001684A68174C436A04EB43331A4301E072
:1010B00022F400624A600168CA6A22F47002CA62BD
:1010C0000168CA6A838B104C04EB03531A43CA624B
:1010D00001688A6822F400728A6001688A6890F860
:1010E000303042EA43228A6001688A6822F48062D2
:1010F0008A6001688A68406942EA8020886010BD81
:101100000023014000E0FFFF0000F0FFFEE70000C9
:1011100070B500F013FD1A498A6A821A0A2A2ED382
:10112000184A1268556A184A1268546ACA6A4FF017
:101130000046AB1A0A6BA21AB34200DC5B1EB24235
:1011400000DC521E00EE903A9FED100A0C4BF8EEB8
:10115000E01ADFED0F0A803B81EEA01A21EE001AA3
:1011600083ED131A01EE102AB8EEC11AC1EE201A4F
:1011700021EE800A83ED140A0C63C1E90A0570BDF3
:101180008000002060040020F00400200080BB45A7
:101190000000B443134A10B413680021B8B1012809
:1011A00013D159631048146890ED150ABCEEC00ABB
:1011B00010EE103AA36390ED160A1368BCEEC00A55
:1011C00010EE100AD8631068016410BC70475963B0
:1011D000106881631068C1631068016410BC04F07A
:1011E000E7B80000A804002000000020014800F03B
:1011F0002DBA000088060020014800F027BA000040
:10120000C8050020014800F021BA0000E8060020CF
:10121000014800F01BBA00002806002001681823CE
:10122000CAB2103AB2FBF3F2054B6FF30901032A7D
:101230009B5CC36500D9091D8165084670470000A5
:101240001677000810B5014600208B698A6A4FF0B6
:10125000C07453B1B3F5005F15D072B1012A0CD040
:10126000022A0AD0032A09D104E01AB1012A06D0C1
:10127000022A03D1C96AC90100D5012010BDC96A7B
:10128000A142FAD010BD002AF7D0012AF2D0022ADA
:10129000F3D0032AF3D010BD30B50468256825F4D7
:1012A00080252560046863608368402B036803D051
:1012B00099600068C26030BD9A600068C16030BD4E
:1012C000074808B540680090014606480269914207
:1012D00002D2C168491CC1600099016108BD0000CB
:1012E000001000E0F000002000B50E492DED028B4B
:1012F00081B0496800910168009A511A00EE101AF5
:101300000949F8EE400A91ED000A0260B8EE400A81
:1013100080EE808AFFF7D4FF01B0B0EE480ABDEC42
:10132000028B00BD001000E0F00000200D490A68AB
:1013300042F080720A600C4900224A600B6843F058
:1013400001030B6009494FF47A734843B0FBF3F390
:101350000749C1E90003054BB0FBF3F0C1E9020204
:1013600070470000FCED00E0001000E040420F007C
:10137000F0000020704772B6FEE7000078B5002448
:10138000009490F83C20012A19D0012280F83C20DA
:101390000A6807230568092A13D9EE680A3A02EB9E
:1013A000420293409E43EE600B788A680A3B03EB4F
:1013B00043039A400368DD682A43DA6010E00220A4
:1013C00078BD2E6902EB420293409E432E610B785A
:1013D0008A6803EB43039A4003681D692A431A6134
:1013E0004A681F23072A13D205686E6B521E02EB50
:1013F000820293409E436E630A8893B20A79521E1A
:1014000002EB820293400268556B2B43536327E043
:1014100005680D2A12D22E6BD21F02EB8202934076
:101420009E432E630B790A88DB1F92B203EB830382
:101430009A4003681D6B2A431A6311E0EE6A0D3A65
:1014400002EB820293409E43EE620B790A880D3BC9
:1014500092B203EB83039A400368DD6A2A43DA629F
:101460001B4B0568194A9D420AD10D68122D07D100
:10147000556825F400055560556845F480055560AC
:1014800005689D421DD1134D0B68AB4201D0112B55
:1014900017D1536823F480035360536843F4000367
:1014A00053600968A9420CD10B490C4A0968B1FB89
:1014B000F2F101EB8101490000E0491E0091002991
:1014C000FBD180F83C40002078BD000000230140A3
:1014D0000020014012000010EC00002040420F00EC
:1014E00070B504004FF0000503D0206C002610B149
:1014F00007E0012070BD204600F01CF8666484F807
:101500003C60206CC00610D4206C20F4885040F061
:10151000020020642046FFF765FD6664206C20F021
:10152000020040F00100206400E0012584F83C60E6
:10153000284670BD10B586B0044614216846FEF7F3
:10154000DAFE1149206888421CD110480021026847
:1015500042F480720260006800F4807005900B48CD
:101560001438026842F001020260006800F00100D5
:101570000590042000900320CDE90101694604484C
:1015800000F0E8F906B010BD0020014044380240E8
:10159000000002402DE9F0410446876D00F0CEFACC
:1015A000064694F835000025022806D080206065A4
:1015B00084F834500120BDE8F0812068016821F0F2
:1015C000160101602068416921F080014161206CB1
:1015D00008B9A06C20B12068016821F00801016001
:1015E0002068016821F0010101600CE000F0A6FA1A
:1015F000801B052807D920206065032084F835006A
:1016000084F83450D7E720680068C007EED194F81A
:101610005C103F208840B860012084F8350084F8D1
:1016200034500020C7E790F83510022903D08021FC
:10163000416501207047052180F835100068016878
:1016400021F0010101600020704700002DE9F843FE
:1016500004464FF00009CDF8009063484FF416514E
:10166000A56D0068B0FBF1F72E6894F85C100820B7
:1016700000FA01F131420FD021680A6852070BD5F8
:101680000A6822F004020A6094F85C108840A8609E
:10169000606D40F00100606594F85C104FF0010847
:1016A00008FA01F0304208D021684969090604D5DA
:1016B000A860606D40F00200606594F85C10042042
:1016C0008840304208D021680968890704D5A8609D
:1016D000606D40F00400606594F85C101020884054
:1016E000304218D021680968090714D5A86020681D
:1016F0000168490304D50068000308D5A16C07E020
:101700000168C90503D4016821F008010160216C5A
:1017100009B12046884794F85C1020208840304268
:1017200031D021680968C9062DD5A86094F8350024
:1017300005282068016806D0490347D500680003E2
:101740001DD4616C1CE021F0160101602068416924
:1017500021F080014161206C08B9A06C20B12068A3
:10176000016821F00801016094F85C103F20884076
:10177000A86084F8358084F83490216D1FE0E16B17
:1017800009B120468847606D00282BD0606DC007E6
:1017900014D0052084F835002068016821F001018B
:1017A00001600098401C0090B84203D8206800688F
:1017B000C007F6D184F8358084F83490E16C0029B4
:1017C00010D001B02046BDE8F04308470168C905C4
:1017D000D5D4016821F01001016084F8358084F8C7
:1017E0003490CCE7BDE8F883EC0000202DE9F0410F
:1017F000044600F0A3F906465CB1022084F83500E7
:10180000002584F834502068016821F0010101604E
:101810000DE00120BDE8F08100F090F9801B052863
:1018200005D920206065032084F83500F2E72068A0
:101830000068C007F0D12268116820480140D4E94F
:1018400001031843D4E9033633431843636918434B
:10185000A3691843E3691843236A18430843616A7C
:10186000042903D1D4E90B131943084310602068FD
:101870004069666A20F0070130460E4301270428BC
:101880000CD1A06A0643E06A40B12046FFF7DAFCBB
:1018900020B14020606584F83570BAE72068466161
:1018A0002046FFF7BBFC94F85C203F21914081600B
:1018B000656584F835700020ACE700003F8010F0CB
:1018C0002DE9F0410446866D90F83400002501288A
:1018D0000DD0012084F8340094F835700020012FD9
:1018E00007D084F8340002252846BDE8F0810220A4
:1018F000FBE7022784F8357060652046FFF7CCFCD3
:1019000094F85C103F208840B0602068016841F086
:1019100016010160206C20B12068016841F00801C7
:1019200001602068016841F001010160DCE700000E
:1019300070B5044600F002F90546601C02D0044868
:101940000078044400F0FAF8401BA042FAD370BDBE
:10195000E00000202DE9F84FDFF8ACA100220124BF
:1019600003254FF00F090AF1040BAAF1040E00BF82
:101970000B6804FA02F63340B3426ED10F7907F0D8
:101980000307012F01D0022F16D187684FEA4208C2
:1019900005FA08FC27EA0C07D1F80CC00CFA08FC81
:1019A0004CEA070CC0F808C04768B7430E79C6F385
:1019B000001696403E4346600E79F643B6070AD0BD
:1019C000C6684FEA420C05FA0CF7BE438F6807FA67
:1019D0000CF73743C7600E7906F00306022E10D1CC
:1019E000D60800EB8608D8F8206057074FEAD76C76
:1019F00009FA0CF7BE430F6907FA0CF73743C8F82A
:101A0000207006684FEA420C05FA0CF7BE430F79C6
:101A100007F0030707FA0CF7374307604E6816F420
:101A2000403F6BD0394E376847F48047376036689F
:101A300022F0030706F480460096354E07EB060CAD
:101A4000DCF8086897074FEA177809FA08F7BE43E9
:101A5000304FB84202D100271FE04FE02E4FB8426E
:101A600001D1012719E02D4FB84201D1022714E01E
:101A70002B4FB84201D103270FE02A4FB84201D1C2
:101A800004270AE0284FB84201D1052705E0274F77
:101A9000B84201D1062700E0072707FA08F73743C5
:101AA000CCF80878DAF800605746D1F804C09E43B5
:101AB0005FEACC2C00D51E433E60DBF800605F4639
:101AC000D1F804C09E435FEA8C2C00D51E433E60D3
:101AD000DEF800607746D1F804C09E435FEA8C3C94
:101AE00000D51E433E60084F083F3E68D1F804C051
:101AF0009E435FEACC3C00D51E433E60521C102A38
:101B0000FFF436AFBDE8F88F083C0140443802408E
:101B10000030014000000240000402400008024082
:101B2000000C024000100240001402400018024065
:101B30000AB1816170470904FBE700000148806831
:101B400070470000E000002070B5040025D094F834
:101B50003D00002520B984F83C50204600F052FAA0
:101B6000242084F83D002068016821F00101016013
:101B70002068016841F4004101602068016821F497
:101B80000041016000F0E2FB4D4A6168914201D8DA
:101B90004C4900E04C49884201D2012070BD4B49BC
:101BA0002368B0FBF1F15E6826F03F060E435E60ED
:101BB0006368934206D94FF4967359434FF47A738E
:101BC000B1FBF3F12368491C1E6A26F03F0631433E
:101BD00019626168914210D84900401EB0FBF1F2D1
:101BE000521CC2F30B02042A01D2042022E0B0FBF3
:101BF000F1F0401CC0F30B001CE0A268F2B301EB53
:101C0000C10303EB0116431EB3FBF6F35B1C43F465
:101C100080431B0549D092B301EBC10202EB0111D5
:101C2000401EB0FBF1F0401CC0F30B0040F48040BC
:101C300040F400402168CA694CF6FF739A43104390
:101C4000C861D4E9071001432068026822F0C0028D
:101C500011430160D4E9030101432068826848F21E
:101C6000FF339A4311438160D4E905010843216899
:101C7000CA6822F0FF021043C86001E00EE016E0DF
:101C80002068016841F0010101602564202084F88A
:101C90003D00256384F83E50002070BD01EB4106F5
:101CA000431EB3FBF6F35B1CB3E70120C2E701EB75
:101CB0004101401EB0FBF1F0401CC0F30B00B7E740
:101CC000A086010080841E0000093D0040420F00F4
:101CD0002DE9FF4F83B09A46DDE91187934604460C
:101CE000DDF84090FFF72AFF054694F83D002028D4
:101CF00070D11923012274492046009501F056FD48
:101D00000028F5D194F83C00012863D0012084F824
:101D10003C0020680168C90703D1016841F0010156
:101D200001602068016821F400610160222084F8CC
:101D30003D00402084F83E0000262664C4F824902C
:101D4000A4F82A80608D20856048E062CDE90075A6
:101D500053465A462046049901F02AFC002879D1BE
:101D6000208DD0B1012821D00228206824D04169DB
:101D700080690090208D032866D801282BD0544913
:101D800002283B464FF00002009557D08846204677
:101D900001F00CFD00285DD13AE0206841698169BD
:101DA0000091016841F4007101607DE020680168E4
:101DB00021F480610160F0E7016821F48061016035
:101DC0002068016841F40061016020684169806910
:101DD000009069E075E02A463946204601F08CFD06
:101DE00088BB54E02068016841F4007101602068FC
:101DF0000069616A0870606A401C6062218D491E3A
:101E00002185618D491E618521680969017042E063
:101E10002068016821F48061016020680069616ABE
:101E20000870606A401C6062208D401E2085608DB5
:101E3000401E60853B46002241460095204601F049
:101E4000B5FC00B9CEE705E02A463946204601F048
:101E500053FD18B1012007B0BDE8F08F206800697C
:101E6000616A0870606A401C6062208D401E81B209
:101E70002185608D401E608520684269D2435207EB
:101E800012D4032903D1016821F480610160206824
:101E90000069616A0870606A401C6062208D401EA3
:101EA0002085608D401E6085208D00287FF462AF04
:101EB000202084F83D0084F83E6084F83C600020D7
:101EC000C9E70220C7E70000020010000000FFFF82
:101ED000040001002DE9FF4F83B09A46DDE9119718
:101EE00093460446DDF84080FFF728FE054694F847
:101EF0003D0020287FD1192301224049204600952A
:101F000001F054FC002876D194F83C00012872D0EE
:101F1000012084F83C0020680168C90703D10168EA
:101F200041F0010101602068016821F40061016055
:101F3000212084F83D00402084F83E0000262664DD
:101F4000C4F82480A4F82A90608D20852C48E06293
:101F5000CDE9007553465A462046049901F0A6FB88
:101F600070B930E02A463946204601F0FDFC58B1F0
:101F7000206C042804D12068016841F400710160DC
:101F8000012007B0BDE8F08F606A21680078086121
:101F9000606A401C6062218D491E89B22185628D74
:101FA000521E628522685369DB435B070BD469B11B
:101FB00000781061606A401C6062208D401E2085A0
:101FC000608D401E6085208D0028CBD12A46394681
:101FD000204601F0BFFB0028CAD154F83D0B016830
:101FE00041F400710160202004F81E09E67766774D
:101FF0000020C6E7FFE70220C3E700000200100050
:102000000000FFFF10B586B0044614216846FEF7B5
:1020100072F914492068884221D1134800210268CE
:1020200042F002020260006800F0020005904FF4E6
:10203000407000901220CDE901010320039004209C
:10204000049069460948FFF785FC0748103001688D
:1020500041F400110160006800F40010059006B022
:1020600010BD00000054004030380240000402401F
:10207000024881680278114481607047E0000020C6
:102080000B4810B5016841F400710160016841F42A
:1020900080610160016841F480710160032000F0FB
:1020A00071F8002000F006F800F024F8002010BDC0
:1020B000003C024070B50D4D04464FF47A7128780B
:1020C000B1FBF0F00A490968B1FBF0F000F074FBD5
:1020D00048B9102C07D200222146501E00F032F8D9
:1020E00000206C6070BD012070BD0000E000002089
:1020F000EC0000200B4882B0016841F4804101608F
:10210000006800F4804000900648001F016841F01C
:1021100080510160006800F080500090072002B0FC
:1021200000F030B844380240002809DB00F01F02FC
:10213000012191404009800000F1E020C0F8001129
:1021400070470000F0B40E4B1B680C46C3F302232B
:10215000C3F10705042D00D90425191D072901D253
:10216000002300E0DB1E012606FA05F1491E21408E
:1021700099409E40761E16403143F0BC03F069BF83
:102180000CED00E0064900F0070208684FF6FF0377
:10219000184040EA0220034A1043086070470000DC
:1021A0000CED00E00000FA052DE9F843174801683E
:1021B00041F0805101600068154F00F08050012609
:1021C00000903E64FFF7BAFC05464FF47A78114C54
:1021D00005E000BFFFF7B2FC401B40450DD860682A
:1021E000C003F7D57E64FFF7A9FC0546464607E025
:1021F000FFF7A4FC401BB04202D90320BDE8F883DE
:1022000060688003F4D50020F8E700004038024001
:1022100000000E42007000402DE9F0470E46050018
:1022200065D0DFF81481D8F80000F7B200F00F0095
:10223000B04207D288F80070D8F8000000F00F0014
:10224000B04254D128683D4C810712D5400703D5D0
:10225000206840F4E05020602878000703D520680B
:1022600040F4604020602068A96820F0F000084336
:1022700020602878C0072DD03049686808390128C7
:1022800012D0022813D0032811D009688907002929
:102290002DDA216821F0030101432160FFF74EFC94
:1022A000814641F2883A0EE009688903EFE7096840
:1022B0008901ECE7FFF742FCA0EB0901514502D987
:1022C0000320BDE8F0872068696800F00C00B0EBDF
:1022D000810FEFD1D8F80010404601F00F01B14254
:1022E00007D90770006800F00F00B04201D001204C
:1022F000E7E72878400705D52068E96820F4E05032
:10230000084320602878000706D52068296920F452
:10231000604040EAC100206000F038F82168084AB7
:10232000C1F30311515CC8400649086006480068C3
:10233000FFF7C0FE0020C4E7003C0240083802401E
:102340001E770008EC000020E40000200448054946
:1023500000680968044AC1F38221515CC840704793
:10236000EC000020083802402E7700080448054998
:1023700000680968044AC1F34231515CC8407047A3
:10238000EC000020083802402E770008224810B5E3
:10239000006810F00C02214815D04110042A11D019
:1023A0001D4C241F082A0FD00C2A0CD12268236848
:1023B00002F03F025B0221D52068C0F38810A0FB29
:1023C000010120E0084610BD2268236802F03F02A8
:1023D0005B0205D52068C0F38810A0FB010104E072
:1023E0002168C1F38811A1FB00010023FDF708FF5C
:1023F0002168C1F30141491C49000AE02168C1F389
:102400008811A1FB00010023FDF7FAFE2168C1F34A
:102410000271B0FBF1F010BD083802400024F40056
:102420002DE9F84F04007DD0DFF878B32078ABF1C8
:102430000407C007A7F1040550D0DBF80010584688
:10244000C1F3810101290FD00168C1F38101022983
:1024500002D13968490207D40068C0F3810003281B
:1024600009D13868400206D52868800336D56068EF
:102470000028D8D032E06068B0F5803F10D0B0F5C9
:10248000A02F286810D020F480302860286820F41D
:10249000802028606068A0B1FFF750FB06460CE082
:1024A000286840F48030F4E740F480202860F7E7A3
:1024B000FFF744FB801B642876D828688003F7D593
:1024C0000CE0FFF73BFB064605E000BFFFF736FBDD
:1024D000801B6428F0D828688003F7D42078DFF8C0
:1024E000C89280074FF0000A44D5DBF80010584628
:1024F00011F00C0F0FD00168C1F38101022902D144
:102500003968490207D50068C0F3810003280AD161
:102510003868400207D42868800715D5E06801288C
:1025200000D111E03AE1E068B0B10120C9F8000043
:10253000FFF704FB064604E0FFF700FB801B0228C0
:10254000BAD828688007F7D52868216920F0F800F4
:1025500040EAC10028600DE0C9F800A0FFF7EEFADC
:10256000064604E0FFF7EAFA801B02281CD8286818
:102570008007F7D42078000727D5DFF828828B481A
:10258000616908F16C0881B101210160FFF7D6FA99
:10259000064604E0FFF7D2FA801B022804D8D8F8D8
:1025A00000008007F6D510E089E0C0F800A0FFF732
:1025B000C5FA064605E000BFFFF7C0FA801B0228F7
:1025C0007DD8D8F800008007F6D42078400769D578
:1025D00074484FF0000838300068C0000BD47148D0
:1025E0003830016841F08051016000684FF0010807
:1025F00000F0805000906E4E3068C00511D43068F5
:1026000040F480703060FFF799FA009006E000BF58
:10261000FFF794FA0099401A022850D83068C00594
:10262000F6D5604EA068683601280FD005283068BE
:1026300010D020F001003060306820F004003060DD
:10264000A068B8B1FFF77AFA00900FE0306840F068
:102650000100F4E740F004003060F7E7FFF76EFA9E
:102660000099411A41F28830814264D8306880076D
:10267000F4D50EE0FFF762FA009007E0FFF75EFA8C
:102680000099411A41F28830814254D8306880075D
:10269000F4D4B8F1000F05D042483830016821F079
:1026A00080510160A069A8B3DBF80010C1F381017B
:1026B000022947D00228C9F860A005D000E03AE01E
:1026C000FFF73CFA044639E0FFF738FA064604E023
:1026D000FFF734FA801B02282DD828688001F7D430
:1026E000F4E907010843E168324A490802EB014175
:1026F000A26841EA82110843217C40EA0160217D01
:1027000040EA017038600120C9F86000FFF716FA4E
:10271000044606E044E000BFFFF710FA001B022861
:1027200009D828688001F7D53AE000BFFFF706FA1C
:10273000001B022802D90320BDE8F88F2868800119
:10274000F4D42DE00128F7D03868E26900F4800164
:10275000914223D1226A00F03F0191421ED147F6F7
:10276000C071626A0140B1EB821F17D1A26A4FF0BB
:10277000FF3300F4403103EB5202B1EB024F0DD1B5
:1027800094F82C2000F07061B1EB026F06D194F840
:10279000301000F0E040B0EB017F01D00120CBE72A
:1027A0000020C9E70838024000004742800E474237
:1027B000007000400000FFFF10B5401EB0F1807FA8
:1027C00001D3012010BD4FF0E02460610F2160179C
:1027D00003F03FFC0020A06107202061002010BD15
:1027E00070B590F83C20012A32D0012480F83C409A
:1027F000022280F83D2003685A689D6822F0700626
:102800000A6832435A60134B02689A4214D0B2F1FC
:10281000804F11D0104B9A420ED0104B9A420BD0E1
:102820000F4B9A4208D00F4B9A4205D00E4B9A425A
:1028300002D00E4B9A4204D1496825F08003194317
:10284000916080F83D40002180F83C10084670BD42
:10285000022070BD0000014000040040000800405C
:10286000000C0040000401400040014000180040FE
:102870002DE9F0410D46040003D094F83D0018B155
:1028800008E00120BDE8F081002084F83C002046EB
:1028900000F040F8022084F83D002068816844F28E
:1028A000070291438160211D206802F0A7FF226882
:1028B00090689169166A2B68AF69034340F2033050
:1028C000814341EA0721A868EF6908434FF6FC41BC
:1028D0008843E96840EA0720014328692F6A00011C
:1028E00040EA0730084369686D6926F0AA0646EA9F
:1028F0000515294393602268906154F8460B0162E4
:10290000012004F81F09E0752076E0762077A07595
:102910000020B7E730B587B0044614216846FDF7BC
:10292000EAFC224824680022204910380223B4F12E
:10293000804F1FD01E4DAC421AD10C6844F00404E5
:102940000C60096801F004010591016841F0020181
:1029500001600068694600F002000590C020009008
:10296000CDE901321348CDE9032300BFFEF7F2FFA2
:1029700007B030BD0C6844F001040C60096801F038
:1029800001010591016841F001010160006869469B
:1029900000F00100059048F202000090CDE90132FC
:1029A0000120CDE903200448E0E700004038024060
:1029B00000080040000402400000024070B590F89A
:1029C0003E60044690F83F5090F8423090F8432023
:1029D000022021B104290ED0012E1BD114E0012EBA
:1029E00018D1012B16D184F83E0084F84200012250
:1029F0000021206820E0012D0CD1012A0AD184F8A1
:102A00003F0084F8430014E0012D03D1012B01D1D4
:102A1000012A01D0012070BD84F83E0084F83F00F7
:102A200084F8420084F8430001220021206802F06B
:102A30004DFF01220421206802F048FF2068016850
:102A400041F001010160002070BD000030B587B089
:102A5000044614216846FDF74EFC1649206888425A
:102A600026D115480024016841F001010160016888
:102A700001F001010591016841F002010160006867
:102A8000022500F002000590C0200090CDE901541D
:102A900069460A48CDE90345FEF75CFF0320009034
:102AA000CDE9015469460648CDE90345FEF752FFDA
:102AB00007B030BD00040040303802400000024042
:102AC0000004024070B5044690F83C0000260D4614
:102AD00001280FD0012084F83C006AB1042A1DD0DF
:102AE000082A2FD00C2A3FD00126002084F83C0071
:102AF000304670BD022070BD206802F0F5FE2068EF
:102B0000816941F0080181612068816921F0040137
:102B10008161206881692A69114311E0206802F00F
:102B200013FF2068816941F4006181612068816937
:102B300021F480618161206881692A6941EA02216A
:102B40008161D2E7206802F035FF2068C16941F059
:102B50000801C1612068C16921F00401C1612068D8
:102B6000C1692A69114311E0206802F057FF20680B
:102B7000C16941F40061C1612068C16921F48061CB
:102B8000C1612068C1692A6941EA0221C161ACE7DB
:102B900010B5040003D094F83D0010B107E0012007
:102BA00010BD002084F83C00204600F01FF80220F1
:102BB00084F83D00211D206802F020FE012084F8E9
:102BC000460084F83E0084F83F0084F8400084F812
:102BD000410084F8420084F8430084F8440084F8FB
:102BE000450084F83D00002010BD000008B50068D5
:102BF0000649884208D10648016841F00201016097
:102C0000006800F00200009008BD000000040040D1
:102C10004038024010B50446022249B104290ED0C2
:102C2000082913D094F84100012816D0012010BDC6
:102C300094F83E000128F9D184F83E200FE094F882
:102C40003F000128F2D184F83F2008E094F84000CA
:102C50000128EBD184F8402001E084F841200122D2
:102C6000206802F033FE16492068164A884201D0D7
:102C7000904203D1436C43F400434364206888428C
:102C800013D0B0F1804F10D00F4988420DD00F49BA
:102C900088420AD00E49884207D0904205D00D499B
:102CA000884202D00C49884204D1816801F00701B2
:102CB000062903D0016841F001010160002010BD28
:102CC00000000140000401400004004000080040F2
:102CD000000C004000400140001800407047704761
:102CE000F8B5016804460868CA684B6910F00F0F10
:102CF0004FF0000559D003F0010602F490773743F6
:102D000065D0C10705D0D10503D5616C41F0010143
:102D10006164410705D5D90703D0616C41F0020118
:102D20006164810705D5D90703D0616C41F00401C6
:102D30006164010707D502F02001314303D0616CC3
:102D400041F008016164616C00293AD0800604D525
:102D5000900602D5204602F03CFF20684069616C75
:102D6000C0F38010090700D460B3204602F0FCFED7
:102D700020684069400621D52068143050E8001FC3
:102D800021F0400140E80012002AF5D1E06BA8B123
:102D900072490165E06BFEF746FC002811D0E06B3C
:102DA000016D01B0BDE8F040084783060FD59306DA
:102DB0000DD52046BDE8F84002F00BBF2046FFF7D6
:102DC0008EFFF8BD2046FFF78AFF6564F8BD266BCD
:102DD0002023012E7ED1C6067CD5D6067AD508687A
:102DE0004868009048694FF0020640064DD5E26BF6
:102DF000106840684FF480770004000C3AD0A18D31
:102E0000814237D9E085D069B8422DD020680C3096
:102E100050E8001F21F4807140E80012002AF5D12B
:102E20002068143050E8001F21F0010140E8001232
:102E3000002AF5D12068143050E8001F21F040012D
:102E400040E80012002AF5D184F84230256320685A
:102E50000C3050E8001F21F0100140E80012002A59
:102E6000F5D1E06BFEF796FB6663A08DE18D401A0D
:102E700081B206E0A18D8142A8D1D069B842A5D126
:102E800066632046FFF72AFFF8BDA08DE18D401A4A
:102E900081B2E08D0028F7D00029F5D020680C30F1
:102EA00050E8002F22F4907240E80027002FF5D15F
:102EB0002068143050E8002F22F0010240E800277B
:102EC000002FF5D184F84230256320680C3050E89B
:102ED000002F00E006E022F0100240E80023002B63
:102EE000F3D1CDE705062BD5150629D594F8410079
:102EF0002128C9D1A068B0F5805F01D12069B0B1A7
:102F0000206A411C2162216800784860E08C401EE4
:102F10000004000CE084B7D12068C16821F0800172
:102F2000C1602068C16841F04001C160F8BD206AFD
:102F30000088C0F308004860206A801C2062E5E732
:102F40004006F3D55006F1D5CA68204622F040026B
:102F5000CA6084F8413000F036FAF8BD6D5A0008B6
:102F600070B5040004D094F84100002510B106E0CB
:102F7000012070BD84F84050204600F023F8242042
:102F800084F841002068C16821F40051C1602046E6
:102F900002F080FE2068016921F4904101612068FF
:102FA000416921F02A0141612068C16841F4005162
:102FB000C1606564202084F8410084F842006563A4
:102FC000002070BD2DE9F04387B004461421684607
:102FD000FDF791F95548DFF850C114382768534977
:102FE00002220323002506154FF0400967454FD103
:102FF0000F6847F010070F60096801F01001059194
:10300000016841F0010101600068694600F00100BB
:10301000059058028DE825000720CDE9033044488B
:10302000FEF798FC444F43484FF000683860C7E90A
:103030000185C7E903567D61BD61FD613D6238468A
:103040007D62FEF7D3FB08B1FEF795F9E763BC6339
:10305000394F384860377830C7E903567D61BD6124
:10306000FD613D627D6287E801033846FEF7BEFBE5
:1030700008B1FEF780F9A763002211462520BC6342
:10308000FFF760F82520FFF74FF807B0BDE8F083A1
:10309000DFF8A8C06745F8D10F6847F020070F6038
:1030A000096801F020010591016841F00401016007
:1030B0000068694600F004000590C0208DE82500F6
:1030C0000820CDE903301E48FEF744FC1A4F19488A
:1030D000C037183838604FF02068C7E90185C7E964
:1030E00003567D61BD61FD613D6238467D62FEF73C
:1030F0007DFB08B1FEF73FF9E763BC63114F0D4854
:10310000C7E903567D61BD61FD613D6260307D624E
:1031100087E801033846FEF769FB08B1FEF72BF993
:10312000A763BC63B1E700000010014044380240CF
:103130000000024040640240C80500200014014025
:1031400000080240E806002090F84230202B01D011
:103150000220704721B11AB10023036302F020BEA0
:103160000120704790F84230202B01D00220704798
:1031700021B11AB10023036302F062BE012070473F
:103180002DE9F0415A4901232DED048B8842594C19
:103190007ED1E07800B9E3702078303804283AD83E
:1031A000C6B200256670022E0AD0032E08D0042E67
:1031B00006D0E5719FED509A8EB3012E7DD139E096
:1031C0004C4A94ED100A803282ED090A65739FED36
:1031D0004B0A4B484FF49671022E076804D0032E19
:1031E0000DD0042E16D117E082ED080A63737963BF
:1031F000026895630268D163006805640AE082EDA5
:10320000080A022262737D63026891630268D563D3
:1032100000680164A67050E09FED3A0AE4E7FFE71A
:10322000E562B0EE490A0020A56201F063FEE57296
:10323000A57242E04FF4D270E062A062A3709FEDED
:10324000320A012001F056FED4ED130A94ED110A62
:103250002E4801F0BBFF2D48B0EE408AD4ED140A91
:1032600094ED120A303001F0B1FFF0EE408ADFED4C
:10327000280AB0EE480A03F0ABF9F0EE400AB0EECF
:10328000490A03F081F984ED150ADFED220A00E016
:103290001CE0B0EE680A03F09BF9F0EE400AB0EED5
:1032A000490A03F071F984ED160A00210120FDF7A7
:1032B00071FF9FED190A02F033FABDEC048B012275
:1032C000BDE8F0410B490A48FFF74CBF134988425B
:1032D0000AD163714FF48072BDEC048BBDE8F041FC
:1032E0000F490E48FFF730BFBDEC048BBDE8F081FD
:1032F0003805002000000020000000000000B4425B
:10330000A8040020000034430000A0424003002035
:103310000000D2430000D04314AEA73F8005002038
:103320004002002070472DE9F843044690F8410020
:10333000984616460D46202802D00220BDE8F883A4
:1033400085B17EB100206064212084F84100FEF741
:10335000F5FBA6848146E684A0682027B0F5805F4F
:1033600002D003E00120E9E7206910B12E460025D4
:103370000EE000260CE08021204602F07CFDA8B97A
:10338000C6B116F8010B21684860E08C401EE0844D
:10339000E08C4B464FF00002CDF800800028EAD1C7
:1033A0004FF04001204602F066FD40B184F84170C4
:1033B0000320C3E735F8020BC0F30800E3E784F805
:1033C00041700020BAE7704710B5254C607B00289B
:1033D0003CD004F18001D4ED100A91ED090A0128D6
:1033E00030EEC00ADFED1F0A31D0B5EEC00AF1EEB3
:1033F00010FA01DD30EE600AD1ED080AB2EE0E1AC5
:1034000070EEC10AB0EEC00AF4EEC00AF1EE10FA96
:103410001CD800210846FDF7BDFE00206073A07097
:10342000B4F924009FED101A00EE100AF8EEC00A5D
:1034300080EE810AD4ED190A9FED0C1A60EE810A24
:103440009FED0B1A40EE010AC4ED190A10BDB5EE4E
:10345000C00AF1EE10FACFD230EE200ACCE700001D
:10346000000000200000B443000083423333733F68
:10347000CDCC4C3DFEE7000010B504462DED028B8F
:10348000B0EE608AF0EE408AFEF758FB216ADFED6D
:10349000370A411A00EE101AB8EE400A80EE201AE0
:1034A000B5EEC01AF1EE10FA04D911EE101A304A36
:1034B000914201DD94ED071A78EEC80A9FED2D0ABE
:1034C0002D49206202E000BF70EEC00A10EE900AA3
:1034D0008842F9DC294900BF10EE900A884202D9DF
:1034E00070EE800AF8E794ED000A20EE202A94EDB1
:1034F000030A00EE810A84ED030AD4ED061AB4EE45
:10350000E10AF1EE10FA06DCF1EE611AB4EEE10A1E
:10351000F1EE10FA01D2C4ED031A94ED010AD4EDD4
:10352000031A60EE211A94ED040A70EEC02A82EEAE
:10353000810A94ED021A21EE000A32EE211A31EED0
:10354000000A94ED051AB4EEC01AF1EE10FA06D393
:10355000B1EE411AB4EEC01AF1EE10FA01DDB0EE90
:10356000410AC4ED040ABDEC028B10BD00007A4490
:10357000CDCCCC3D0000B44300003443000034C344
:1035800001684A69D24352050FD46FF480624A61E0
:10359000002140F8301F202242738173026942F0FB
:1035A000040202610173012070470020704700008F
:1035B0002DE9F84F0446006889460B9D016898463E
:1035C000174641F4806101602068016841F4807110
:1035D000016000954FF0011B0022594620460A9BCE
:1035E00000F0E4F84FF4007A40B120680068C005AC
:1035F00001D5C4F840A00320BDE8F88F216809F088
:10360000FE0008612B46284920460A9A00F016F968
:10361000F0BB20684169806900902A4620460A99DB
:1036200000F0A2F940B1206C04283AD1206801686A
:1036300041F40071016034E0FEB2B8F1010F09D02D
:103640002168380A08612A4620460A9900F08CF958
:103650000028E8D1206806612A4620460A9900F031
:1036600083F90028DFD12068016841F4807101608E
:1036700000950022594620460A9B00F097F8002842
:10368000B3D1216809F0FF0040F00100086100E0BB
:1036900007E02B46044920460A9A00F0CFF800289C
:1036A000AAD00120A8E70000020001002DE9F8439C
:1036B000044600680D46DDE90897016898461646FD
:1036C00041F4807101604B4600224FF00111204609
:1036D000009700F06BF848B120680068C00502D57B
:1036E0004FF4007020640320BDE8F883216805F0E2
:1036F000FE0008613B464A461549204600F09EF808
:1037000088B920684169806900903A464946204658
:1037100000F02AF948B1206C042804D1206801681F
:1037200041F4007101600120DEE7F5B2B8F1010F4C
:1037300009D02168300A08613A464946204600F01F
:1037400013F90028E7D1206805610020CCE70000CC
:103750000200010070B516460D4604461EE02046E4
:10376000FFF70EFF08B1012070BD681C16D0FEF7F0
:10377000E5F9801BA84200D885B920684069C0439C
:1037800040070BD5002044F8300F20216173A0734F
:10379000216941F0200121612073E4E7206840693C
:1037A000C0434007DBD4002070BD00002DE9F04786
:1037B000984617460D460446C1F30746DDF82090AB
:1037C0002AE000BFB8F1FF3F26D0FEF7B7F9A0EB23
:1037D0000901414502D8B8F1000F1DD12068012E22
:1037E00016D0806925EA00000004000C12D00020E9
:1037F000B84211D1002044F8300F20216173A0732A
:10380000216941F02001216120730120BDE8F0878A
:103810004069E7E70120EBE72068012E0AD08069C4
:1038200025EA00000004000C06D00020B842C9D0F0
:103830000020EBE74069F3E70120F7E72DE9F047C7
:10384000984616460D4604464FF000094FF0200AF0
:10385000C1F3074723E020684069C043400515D401
:103860002068016841F40071016021686FF4806094
:103870004861C4F8309084F83DA084F83E90216CF3
:1038800041F00401216484F83C9021E0701C06D0D2
:10389000FEF754F9A0EB0800B04203D816B1012F8F
:1038A0001FD021E02068012F15D0806925EA000093
:1038B0000004000C18D000BF44F8309F84F80DA01D
:1038C00084F80E90216941F02001216184F80C9068
:1038D0000120BDE8F087406925EA00000004000CE3
:1038E000EAD12068406901E02068806925EA00008B
:1038F0000004000CAFD1ECE72DE9F0410025904623
:103900000E460446202728E04069C043C0060CD478
:1039100054F8301B6FF01000486144F81059677775
:10392000A577206A2062257714E0FEF707F9A0EB5F
:103930000800B04200D886B920684069C0434006FC
:103940000BD544F8305F6773A573206940F0200001
:10395000206125730120BDE8F08120684169C943D9
:103960004906D1D40020F6E770B516460D46044648
:103970001EE02046FFF704FE08B1012070BD681C60
:1039800016D0FEF7DBF8801BA84200D885B9206866
:103990004069C04300060BD5002044F8300F2021B9
:1039A0006173A073216941F0200121612073E4E774
:1039B00020684069C0430006DBD4002070BD0000D1
:1039C00010B504462DED048BD0F8EC00D0ED009A34
:1039D00090ED019AD0ED028A29EEA90A90ED038AB2
:1039E00009EE090A08EEA80A08EE080A03F0AEFC80
:1039F0005FF00000D4F8EC1001EB8001401CD1ED29
:103A0000000AC0B2042860EE800AC1ED000AF1D3BA
:103A10003E48D4F8001190ED6F0A60EE090AB6EE48
:103A2000000A60EE800AC1ED040AD0ED6F0AD4F8F6
:103A3000001160EEA80A60EE800AC1ED050AD0ED23
:103A40006F0AD4F8001120EEA91AFEEE000A21EE4A
:103A5000201A81ED0A1A90ED6F1AD4F8001121EEA8
:103A6000081A21EE001A81ED0B1A90ED6F1AD4F8A6
:103A7000001121EE081A21EE201A81ED101A90EDA6
:103A80006F1AD4F8001121EE291A21EE201A81EDC7
:103A9000111A90ED6F1AD4F8001121EE281A21EEB8
:103AA000000A81ED160A90ED6F0AD4F8001120EE9D
:103AB000090A20EE200A81ED170AD4F8F810D0ED9B
:103AC000740A91ED1C0A80EE201A81ED1C1AD4F8BC
:103AD000F810D0ED740A0E4891ED230A80EE201AFA
:103AE0009FED0C0A81ED231AD4F8F8100A6F824278
:103AF00001DD81ED1C0AD4F8F810D1F88C20824247
:103B000001DD81ED230ABDEC048B10BD48070020C8
:103B100000401C4600401C4670B52C4C01252DED84
:103B2000028B04F5D8702570B7EE008A80EC030A8A
:103B300000209FED270A84ED730A84F83801C4E958
:103B40005000C4E9520011EE900AB0F17E5F01DD31
:103B5000F0EE481AC4ED741A84ED642A032300229F
:103B60000621201D00F086FC1A4B01221146A3F10C
:103B70000800FCF774FF54F8EC0F9FED170A902231
:103B800080ED008A54F86409184980ED010A606EDE
:103B900080ED020A606E80ED030A1048A0641048B0
:103BA000E064104820651048606504F85A5C04F829
:103BB000595CE06FFCF786FB606F9022BDEC028BD6
:103BC0000B49BDE87040FCF77DBB000048070020B2
:103BD00077CC2B321009002000000000F53B0008D4
:103BE000C1390008293C0008ED3C0008387700087E
:103BF0007801002010B50446902254F8F81F0848B8
:103C0000FCF760FB48220748616AFCF75BFB05484C
:103C100061694822BDE810404830FCF753BB000002
:103C2000780100202809002070B50446B0EE000A93
:103C300054F8EC0F2B4DD0ED000A60EE800AC5ED74
:103C4000090AD0ED010A60EE800AC5ED0A0AD0ED3E
:103C5000020A60EE800AC5ED0B0AD0ED030A20EEE1
:103C6000800A85ED0C0A14F8DE0C14F8E01C10FB39
:103C700001F11D4800884143206AFCF73CFBD5ED6B
:103C80000B1A206AB1EE612A80ED002A206AD5ED78
:103C90000C0AC0ED010A95ED090A206AB1EE401A3E
:103CA00080ED021A206A95ED0A1A80ED031A206A47
:103CB00080ED061A206A80ED070A206AC0ED080A26
:103CC000206AC0ED091A206A80ED0C0A206AB1EE64
:103CD000410A80ED0D0A206A80ED0E2A206AC0EDAF
:103CE0000F0A70BD34010020300100202DE9F84F8B
:103CF00000F180010446783005460091FDF720F977
:103D000084F8C800B4F87800A4F8A800B4F85A0001
:103D1000A4F8AA0004F1A80204F1580191468B46C8
:103D20002846FDF71BF884F8C800B4F8A800A4F8EA
:103D3000B000B4F88200A4F8B20004F1B0029046DA
:103D400048460099FDF70AF884F8C800B4F89000D6
:103D5000A4F8A000B4F89200A4F8A20004F1A00214
:103D6000154604F190014046FCF71CFE84F8C8009B
:103D700041462846B034FCF777FE2076E16BBF4819
:103D80000126D1ED001AB0EE002AC0ED0D1AD1EDDA
:103D9000010A0027C0ED0E0A91ED020AB84D80ED30
:103DA0000F0A91ED031A80ED101A60EE812A34F8A3
:103DB000380C2081668141EEC02AE06F62EE822AD3
:103DC000C0ED002A61EEA02A61EEA11AE06F40EE7C
:103DD000012A40EEE01A22EE822A40EE401A80EDDF
:103DE000012AE06FB4F1B00441EE011AC0ED021AED
:103DF000D4F82C0100EB870090ED000AB0EEC00A69
:103E000002F038F905EB87007F1CFFB280ED610AF4
:103E1000032FEDD3B4F84800A4F8C00004F1C002A9
:103E200004F1B801A4F8C26017468A4604F14800BC
:103E3000FDF728F884F8C800B4F8C000A4F8A8007A
:103E400024F8AA6F4A4639464046FCF787FFA07718
:103E5000E681E08A208251463846FDF771F8A07766
:103E6000884A49465046FCF779FFA07795ED730ADA
:103E7000B6EE001AD5ED720A20EE011AAA3CF4EE55
:103E8000C10AF1EE10FA01D285F83861F4EEC00AE9
:103E90000020F1EE10FA35DD95F8381189B395F868
:103EA000391139B1D5E95021521C41F10001C5E960
:103EB000502102E00021C5E95011D5E950234FF00F
:103EC000320C0021BCEB0202994102D285F8380184
:103ED00036E06D4D14F80C2F28884243D4E93701A1
:103EE0007434FCF7EFF914F8740C10FB00F2288816
:103EF0004243D4E91E01FCF7E5F904F8546CBDE82F
:103F0000F88FFFE79FED611A20EE011AF4EEC10A67
:103F1000F1EE10FA0DDD95F8381151B170EE600A2E
:103F20009FED5B1A20EE010A80EE801A85ED671A7C
:103F300003E0B7EE000A85ED670A0021C5E95011DC
:103F400084F82C00B4F85800A4F8A800B4F8820053
:103F5000A4F8AA004A4658466C340099FCF7FEFEC5
:103F600004F85C0FA4F13002934641464846C83C31
:103F7000FCF7F4FE84F8C80000200DE0D4F81C1112
:103F8000D5ED670A01EB8001401C91ED000AC0B23B
:103F900020EE200A81ED000AB4F89810B4F89A20B7
:103FA00051438142EADC04209FED3A0A002105EBEF
:103FB000800C00EB400300BF9CED5D1AD4F81C217F
:103FC00003EB0108C1EE000A02EB8802491C92EDE6
:103FD000001AC9B2032960EE810AC2ED000AEBD3D0
:103FE000401CC0B20628E1D334F8980F5246208412
:103FF000668439465846FCF7B1FE84F8300095F8DF
:104000003801983C50B39FED240ADFED240A0420C8
:10401000D4F8BC1095ED6F1A01EB800121EE001A67
:10402000D1ED001AF4EEC11AF1EE10FA01DD81EDC6
:10403000001AD4F8BC1095ED6F1A01EB800121EE47
:10404000201AD1ED001AF4EEC11AF1EE10FA01D2E5
:1040500081ED001A401CC0B20628D9D3D4F8BC00A8
:104060009FED0F0A04F1300280ED030A514604F17E
:104070003800FCF797FC84F8C80040E734010020C2
:10408000480700200809002030010020CDCCCC3D9D
:104090006666663FDA0FC93F0AD7233C0AD723BCBE
:1040A00000000000124810B5B7EE000A80ED010ACA
:1040B00080ED020A80ED030A9FED0E2A012180EDBA
:1040C000042A80ED052A80ED062A0170F7EE001A19
:1040D0009FED091ADFED090AB2EE040AFFF71CFD95
:1040E00003489FED070A803880ED100A10BD0000DC
:1040F000380A0020000000008096184B6F12833AA7
:1041000096430B3C2DE9F04107462DED108B984668
:1041100015460E46DDED17FA9DED169AC848FDF7D7
:10412000E3F8C74C84ED010AD4ED020A30EE800AB0
:1041300084ED020A9FEDC3FA94ED030AF0EE00BA93
:1041400094ED061A60EE2BDA94ED040A21EE2BAA08
:10415000B1EE001AD4ED050A20EE2BDA60EE01EA8A
:1041600000EE107A60EEABAA20EE81EAF8EEC00A0B
:104170009FEDB50A60EE80CA00EE906AF8EEE00AA4
:1041800020EE80CA00EE905AF8EEE00A20EE80BAE7
:1041900000EE108AF8EEC00A80EE8F0A10EE100AC8
:1041A000FCF743FA9FEDA98B53EC182BFCF75CF955
:1041B000FCF74EFAF8EEC90A09EE900A80EE8F0A73
:1041C00010EE100AFCF731FA53EC182BFCF74CF9FF
:1041D000FCF73EFAF8EEEF0A09EE100A80EE8F0ABD
:1041E00010EE100AFCF721FA53EC182BFCF73CF9FF
:1041F000FCF72EFA2CEEAC0A0FEE100A0CEE0C0AAD
:104200000BEE0B0A02F028FBB5EEC00AF1EE10FA35
:104210006ED0B7EE001AD4ED04FAC1EE000A94EDA8
:10422000061AD4ED031A2FEE812A2BEE200A94ED04
:1042300005BA2CEEA08A6CEE208A01EECB2A61EE44
:10424000AF1AF0EE000A10EE100A4BEE011A12EE51
:10425000208A51EEA08AFCF7E8F92BEE0B0A41EC1C
:104260001C0B10EE100AFCF7E0F92FEEAF0A41EC40
:104270001B0B10EE100AFCF7D8F99FED761B53ECE0
:10428000112BFCF7EEF853EC1B2BFCF7E7F89FED36
:10429000731B53EC112BFCF7E7F853EC1C2BFCF7CA
:1042A000DDF8FCF7D5F92AEE08BA2AEE28AA6DEE59
:1042B00028BA00EE100A0DEEA8BA0DEEC8AA4AEE12
:1042C000C8BA2DEE08CA0EEEC0BA0EEE40AA2BEE0A
:1042D000AB0A0AEEA8CA0BEE0B0A0AEE0A0A0CEEAB
:1042E0000C0A02F0B9FAB5EEC00AF1EE10FA05D1E7
:1042F0009FED5C0ABDEC108BBDE8F081B7EE008A43
:1043000094ED041AC8EE000AD4ED051A94ED062ABD
:10431000B6EE003A04F110002BEEA00A6BEE202A54
:104320002AEE205A6CEE204A61EE690A41EEC90A73
:1043300042EE4F0A20EE834AD4ED070A00EEC04A4F
:1043400094ED030A60EE293A41EE8F3A42EE493A83
:1043500063EE833A40EEE23A60EE092A41EE4F2ADC
:1043600042EE292A62EE832A40EEC52A20EE0F5A39
:1043700001EE095A01EEE95A25EE033A00EEE43A5D
:10438000D4ED010A04EE200A03EEA01A42EEA01AB0
:1043900003EE202A84ED030A20EE000A80EC031AC3
:1043A00001EE010A01EEA10A02EE020A02F054FA3D
:1043B000C8EE000A94ED030AF0EE001A20EE202A5F
:1043C00084ED032A94ED040A60EE202AC4ED042A49
:1043D00094ED050A20EE201A84ED051A94ED060AE4
:1043E00021EE013A20EE200AF0EE480A84ED060A9A
:1043F00000EE003A22EE000A02EE810A43EE610A64
:1044000020EE210A01F0C2FEDFED170A9FED171A18
:1044100084ED080A60EE200A80EE810A84ED090A24
:10442000B5EEC00AF1EE10FA05D2DFED110A30EE5A
:10443000200A84ED090AA06A401CA0625AE7000025
:1044400008020020000083420000003955098BD982
:10445000F4DC913F000000000000E03F000000009D
:10446000000000400000C07F00003443C3F5484016
:104470000000B4432DE9F047DFF8DC830D4604214A
:10448000A8F800100821A8F802100573427383737E
:104490004FF000091E46044680F81090174630463B
:1044A00003F0E4F831466061FBF725FFB8F800003F
:1044B000704303F0DBF8A061B8F800107143FBF71C
:1044C0001AFFB8F80000704303F0D0F8E061B8F8C4
:1044D00000107143FBF70FFFB8F80000684303F0CA
:1044E000C5F82062B8F800106943FBF704FF3046B6
:1044F00003F0BCF831466062FBF7FDFEB8F800003F
:10450000684303F0B3F82060B8F800106943FBF784
:10451000F2FEB8F80000704303F0A8F86060B8F845
:1045200000107143FBF7E7FEB8F80000784303F092
:104530009DF8A060B8F800107943FBF7DCFEB8F8EE
:104540000000684303F092F8C4F8E800B8F80010DF
:104550006943FBF7D0FE217B012204F13000D4F83F
:10456000E830FCF77CFAB8F80000684303F07EF806
:10457000C4F8EC00B8F800106943FBF7BCFE217BDF
:10458000012204F13800D4F8EC30FCF768FA9FB14E
:10459000B8F80000784303F069F8C4F8F000B8F800
:1045A00000107943FBF7A7FE617B012204F1400074
:1045B000D4F8F030FCF753FAB8F80000704303F079
:1045C00055F8C4F8F400B8F800107143FBF793FEF7
:1045D000A17B012204F14800D4F8F430FCF73FFA43
:1045E000B8F800006843684303F040F8C4F8F800E6
:1045F000B8F8001069436943FBF77DFE217B04F1A5
:1046000050000A46D4F8F830FCF729FAB8F8000050
:104610006843684303F02AF8C4F8FC00B8F80010B7
:1046200069436943FBF767FE217B04F158000A46A2
:10463000D4F8FC30FCF713FAB8F80000684368437C
:1046400003F014F8C4F80001B8F800008834684397
:10465000684303F00BF8E067B8F80010A06F6943F7
:104660006943FBF748FEB8F80010E06F69436943FF
:10467000FBF741FE54F8783FA4F1A00014F8F41CB5
:10468000A4F580740A46FCF7EAF9217B04F168007E
:104690000A46D4F80431FCF7E2F9AFB1B8F80000EB
:1046A0006843784302F0E2FFC4F80801B8F800104C
:1046B00069437943FBF71FFE627B217B04F17000A5
:1046C000D4F80831FCF7CBF9B8F80000474670433E
:1046D000684302F0CBFFC4F80C0138889434684377
:1046E000704302F0C3FFE0673988A06F71436943EC
:1046F000FBF701FE3988E06F69437143FBF7FBFD6F
:1047000014F8882C14F8861CA4F11C00A36F943CA8
:10471000FCF7A5F9A27B217B04F18000D4F81031CD
:10472000FCF79DF938886843684302F09FFFC4F89E
:104730001401398869436943FBF7DDFD217B04F1EE
:1047400088000A46D4F81431FCF789F93888704398
:10475000704302F08BFFC4F818013988714371432C
:10476000FBF7C9FDA17B04F190000A46D4F818318B
:10477000FCF775F938886843704302F077FFC4F896
:104780001C01398869437143FBF7B5FDA27B217B8E
:1047900004F19800D4F81C31FCF761F9207B10FB80
:1047A00000F03988484302F061FFC4F82001207B03
:1047B00010FB00F03988484302F058FFC4F8240188
:1047C000207B10FB00F03988484302F04FFFC4F80B
:1047D0002801207B3988484302F048FFC4F82C01A7
:1047E000207B3988484302F041FFC4F83001217B27
:1047F00004F1A0000A46D4F82031FCF730F9217BFF
:1048000004F1A8000A46D4F82431FCF728F9217BEA
:1048100004F1B0000A46D4F82831FCF720F9217BD6
:10482000012204F1B800D4F82C31FCF718F9217BEF
:10483000012204F1C000D4F83031FCF710F904F87B
:10484000289F84F8019084F8029084F8039084F8FB
:104850000490BDE8F0870000300100202DE9F14F01
:1048600000218CB08B460B91CDE90511CDE90311E8
:104870000F4688460D468A460C4689466423182210
:104880004AA15148FEF74FFD6420FDF751F800267C
:1048900064220E2107A88DE8070001233B22D021C6
:1048A0000C98FDF715FA08B1761E3AE0BDF81C0029
:1048B0000B9B40BA01B2C81711EB0B0B58410B9080
:1048C000BDF81E00DDE9052340BA01B2C817C918BA
:1048D0005041CDE90501BDF82000DDE9032340BAD0
:1048E00001B2C817C9185041CDE90301BDF8240031
:1048F00040BA01B2BDF82600CF1948EBE17840BAC2
:1049000001B2BDF8280011EB0A0A45EBE17540BA87
:1049100001B211EB090944EBE1744FF00200FDF71D
:1049200007F8761CB6F5FA6FB2DB4FF4FA62002393
:1049300058460B99FBF795FC244E4FF4FA6200237E
:10494000F081DDE90510FBF78CFC3082DDE9031016
:104950004FF4FA620023FBF784FC1D4901FA80F052
:1049600070824FF4FA62002338464146FBF779FC27
:10497000B0824FF4FA62002350462946FBF771FCDF
:10498000F0824FF4FA62002348462146FBF769FCA7
:1049900030839FED100A002086ED190A3072FDF772
:1049A000CDF8B0660DB0BDE8F08F000043616C69D2
:1049B00062726174696E67204D5055363530302E05
:1049C0002E2E0D0A000000003805002000000020F7
:1049D00000C0FFFF000000002DE9F04192B000266A
:1049E000804601258DF8406010A8CDE900056424BB
:1049F0008DF80C602B467522D02102944046FDF7BD
:104A000067F99DF84030702B0BD02BA2302104A801
:104A100001F0F2FA04A8FBF779FC82B2642304A93E
:104A200002E0642310222CA13048FEF77CFC8DF8B4
:104A30000C6003AE0096CDE9015401236B22D02116
:104A40004046FDF747FA6420FCF772FF08278DF80F
:104A50000C700096CDE9015401231B22D021404661
:104A6000FDF738FA8DF80C700096CDE9015401235A
:104A70001C22D0214046FDF72DFA06208DF80C00AF
:104A80000096CDE9015401231A22D0214046FDF7BA
:104A900021FA09208DF80C000096CDE9015401237C
:104AA0001922D0214046FDF715FA3220FCF740FFCD
:104AB00012B0BDE8F08100004D5055363530302041
:104AC0004E6F7420466F756E64212049443A3078E9
:104AD000253032580D0A00004D5055363530302003
:104AE000466F756E64210D0A000000003805002035
:104AF00000B587B064230E2203A98DE80E000123C0
:104B00003B22D021FDF7E4F8BDF80C0041BA14486F
:104B1000C289891A4183BDF80E10028A49BA891ADE
:104B20008183BDF81010428A49BA891AC183BDF841
:104B3000121049BAC184BDF81410828A49BA891A80
:104B40000184BDF81610C28A49BA891A4184BDF899
:104B50001810028B49BA891A818407B000BD000081
:104B6000000000207FB500241548009401940294B1
:104B70001249039401604FF48031C0E901140461CB
:104B8000047680F820400F49C0E90A140125C56168
:104B9000C46080F830404561FCF7A2FC08B1FCF726
:104BA000EAFB0220CDE90005694602940448FCF7BF
:104BB000E5FB002801D0FCF7DEFB7FBD00200140B3
:104BC000C40300200100000F154808B5016841F436
:104BD000800101600068002200F48000009011460E
:104BE0003920FDF7AFFA3920FDF79EFA0022114671
:104BF0003A20FDF7A7FA3A20FDF796FA002211466F
:104C00004520FDF79FFA4520FDF78EFA0022114658
:104C10004620FDF797FABDE808404620FDF784BA24
:104C20003038024030B587B014216846FBF763FB8B
:104C300025480024016841F004010160016801F089
:104C400004010591016841F080010160016801F0F3
:104C500080010591016841F001010160016801F0E6
:104C600001010591016841F0020101600068174DE2
:104C700000F002000590002220212846FCF758FF92
:104C80004FF4005000904FF40410CDE90104694640
:104C90000F48FCF75FFE082000900220CDE90104D8
:104CA000032003900720049069462846FCF752FE33
:104CB000202000900120CDE9010469462846039494
:104CC000FCF748FE07B030BD30380240000002401B
:104CD000000802400D4810B50B4901600C494160C5
:104CE00000214FF480428160C0E90312416181617B
:104CF000C1610162FCF728FF002803D0BDE8104025
:104D0000FCF739BB10BD0000005400400C0400202B
:104D1000A086010010B58CB024216846FBF7EBFAA1
:104D20000024144809944FF080410A94C0E900140B
:104D3000611EC0E90241046184610120CDE90004E3
:104D4000CDE902040494CDE9054007946946094879
:104D50000894FDF78DFD08B1FCF70DFB099409A936
:104D600004480A94FDF73CFD002801D0FCF703FB42
:104D70000CB010BD6004002010B58AB00024079468
:104D80001C2168460894FBF7B6FA224820490160C6
:104D90005321C0E9011440F2E731C0E903148461F2
:104DA000FDF7F6FE08B1FCF7E6FA079407A91948E3
:104DB0000894FDF715FD08B1FCF7DDFA6020CDE998
:104DC000000402940022694612480494FDF77AFE1A
:104DD00008B1FCF7D0FA042269460E48FDF772FECE
:104DE00008B1FCF7C8FA082269460A48FDF76AFECE
:104DF00008B1FCF7C0FA0C2269460648FDF762FECE
:104E000008B1FCF7B8FA0348FDF720FE0AB010BD60
:104E100000040040A804002010B58CB0242168468E
:104E2000FBF769FA00241548099413490A94C0E96C
:104E300000144FF6FF71C0E9024104618461012052
:104E4000CDE90004CDE902040494CDE905400794BE
:104E500069460A480894FDF70BFD08B1FCF78BFA88
:104E6000099409A905480A94FDF7BAFC002801D065
:104E7000FCF781FA0CB010BD00080040F0040020DF
:104E80000C4810B50A4901604FF4165141600021E9
:104E900081600C22C160C0E904128161C161FEF72A
:104EA0005FF8002803D0BDE81040FCF764BA10BDDD
:104EB00000100140380500200C4810B50A49016077
:104EC0004FF4E1214160002181600C22C160C0E902
:104ED00004128161C161FEF743F8002803D0BDE8E8
:104EE0001040FCF748BA10BD0014014080050020B6
:104EF000FEE7000070B506462DED028BB0EE408A4D
:104F0000FCF71CFE0546DFED2C0A2C482C4C00213A
:104F1000AEB3012E07D0C4ED110AC4ED120AA1717F
:104F2000BDEC028B70BD264EA279803682B994ED1D
:104F3000100A012284ED170AA27184ED188AC0EDCF
:104F4000030AC0ED040A84ED118A84ED128AB1636C
:104F5000B06B281A1428E3D3D4ED100A94ED170A85
:104F60001648FEF789FAD4ED180A30EE801A30EEB2
:104F7000C00A84ED111A84ED120AB563D0E7FFE789
:104F8000C4ED110AC4ED120AA1710C49603901F196
:104F90003002C1ED030AC2ED030AC1ED040AC2EDFD
:104FA000040AC0ED030AC0ED040ABDEC028BBDE8A3
:104FB000704000F0FDB9000000000000A0030020D8
:104FC00000000020FEE70000104810B50068406AAD
:104FD0000F4C20600F480068406A6060FCF7AEFD2F
:104FE000A0609FED0D0AA4F180009FED0C1A80EDEA
:104FF0001C0A80ED1B0AD0ED100A60EE810AC0ED9C
:105000001D0A80ED1F0A80ED1E0A10BD60040020FD
:1050100080000020F00400200000000035FA8E3CE3
:1050200010B52DED068BFCF789FD5B498A68821A65
:105030000A2A7CD300EE102AB8EE400ADFED570AA8
:10504000C0EE208AF5EEC08AF1EE10FA6FD98860C2
:1050500053480068436A53480068446A08681A1A4B
:105060004868C1E90034201A4FF000418A4200DC50
:10507000521E884200DC401E9FED4B0A00EE902A33
:10508000F8EEE01A9FED491AB6EE00AAC1EE810AC9
:1050900001EE900AF8EEE11A81EE812A60EE800AB4
:1050A00022EE000A30EE201A30EE600A61EE0A9A13
:1050B000DFED3F0A3F4980EE208AB0EEC00A10EED5
:1050C000100A884203DA9FED3C0A28EE008A324C2F
:1050D000803C94ED1D0A30EE080A02F001F9E079F7
:1050E00036499FED379AB0EEC80A28B910EE100A7B
:1050F000884201DA9FED339A94ED1D0ADFED320A02
:1051000030EE088A94ED100A20EE200A30EE480AAC
:1051100002F0E6F8F0EE400AB7EE000A30EE491A67
:10512000B0EE480A01EE200A02F0DAF800E02FE0C3
:10513000B0EE409A94ED1D0A39EE400A02F0D0F824
:10514000F0EE400A94ED1D0AB0EE608A08EE0A0AFD
:1051500002F0C6F8B0EE40AA01F06EF9D4ED1B0AD9
:1051600049EE800AB0EE4A0AC4ED1B0A01F0ACFA1F
:10517000D4ED1C0A49EE800A89EEA80AC4ED1C0A87
:1051800084ED1D9A84ED1E0A88EE280A84ED1F0A1C
:10519000BDEC068B10BD00008000002000007A44AA
:1051A00060040020F00400207A30613E0000B44327
:1051B0007B142E3E6F12033BCDCC4C3E0AD7233CD2
:1051C00048E17A3F6666663F35FA8E3C10B5044684
:1051D0002DED028BB0EE608AF0EE408AFCF7AEFC5B
:1051E000E16ADFED360A411A00EE101AB8EE400A05
:1051F00080EE201AB5EEC01AF1EE10FA04D911EEC5
:10520000101A2F4A914201DD94ED091A38EEC80AAE
:10521000E062D4ED000A20EE802AD4ED030A40EECD
:10522000010AC4ED030AD4ED061AF4EEE10AF1EE28
:1052300010FA06DCF1EE611AF4EEE10AF1EE10FA72
:1052400001D2C4ED031AD4ED010AD4ED031A94ED92
:10525000043A60EEA11AD4ED050A78EE600AC0EEB9
:10526000812A94ED0A1AF7EE000A70EEC10A60EE88
:10527000830A41EE220A94ED021A61EE200A32EE10
:10528000211A71EE600AC4ED080A94ED071AF4EED3
:10529000C10AF1EE10FA06DCB1EE411AF4EEC10AD1
:1052A000F1EE10FA01D284ED081A84ED040A84EDBF
:1052B000058A94ED080ABDEC028B10BD00007A440B
:1052C000CDCCCC3D7047000070B5334C2DED048B38
:1052D000A178002957D102780146100653D5B1F8BC
:1052E0000100C3074FD0400800EE100ADFED2B0A83
:1052F000B1F80300B8EE400AB5EE001A02F07F05DF
:1053000020EE200A00EE900AF8EE600AB5EEC00A20
:1053100060EE818AF1EE10FA38DB10EE100A2049B7
:10532000884233DC9FED1F9AF0EE490A01F074F9D0
:10533000B0EE408AB5EEC08AF1EE10FA01D238EE36
:10534000098A18EE900A18490844184988421AD860
:10535000002D18D094ED0F0A78EE400AF0EEE00A26
:1053600010EE900AB0F17E5F04DAB4EEC08AF1EE7E
:1053700010FA08D22846F0EE680AB0EE480A00F0AB
:1053800061F884ED0F8ABDEC048B70BD024880305B
:10539000C16B491CC163F6E7000000200000803C9F
:1053A0000000B4430000B4430000B8BD0080F30324
:1053B00015489FED140A80ED030A80ED040A80ED84
:1053C000050A80ED080A303080ED030A80ED040AFA
:1053D00080ED050A80ED080A3030002180ED030AD7
:1053E00080ED040A09488171D0ED100AC0ED170A5A
:1053F00080ED110A80ED120A80ED150A80ED160A83
:105400007047000000000000400300200000002062
:105410007047000010B5094CE07800280CD02079C6
:10542000002809D14FF47A730B2204F1D401044807
:10543000FDF779FF0120207110BD00000000002061
:1054400038050020F0B52DED028B95B00446F0EE46
:10545000608AB0EE408AFCF771FB224DA9780029E2
:1054600016D1A97A002913D0297B002910D005F183
:105470008007F96942F21072411A91420CD9002456
:105480002C7364230A2218A11A48FDF74CFFAC7252
:1054900015B0BDEC028BF0BD3C2CF9D3396C411A30
:1054A0000229F5D3F2EE040A386488EEA00A10EE61
:1054B000100AFBF7BAF805460E4618EE100AFBF77D
:1054C000B4F804948DE863000BA2402105A800F015
:1054D00093FD82B2642305A90648FDF724FF87EDFA
:1054E000068AD5E700000020454E445F5343414EF5
:1054F0000D0A0000380500204C696461723A2041B1
:105500003D252E32662C20443D252E32662C20511E
:105510003D25640D0A0000002DE9F0411A499EB0B6
:105520008A6C821A322A2BD3A1F180088864D8F8B9
:105530004000FBF77AF898ED1C0A06460F4610EE7D
:10554000100AFBF772F898ED1B0A04460D4610EEA0
:10555000100AFBF76AF89FED0D1B53EC112BFAF7BD
:10556000F5FF0B4602468DE8FC000AA2602106A862
:1055700000F042FD82B2642306A91048FDF7D3FE75
:105580001EB0BDE8F081000080000020A089B0E1DD
:10559000E91502406F646F6D3A7B2278223A252E1E
:1055A00033662C2279223A252E33662C22796177B4
:1055B000223A252E31667D0D0A00000038050020B4
:1055C0002DE9F0419EB064230C221CA11F48FDF779
:1055D000AAFEDFF87C80D8F84000FBF726F898EDAB
:1055E0001C0A06460F4610EE100AFBF71EF898ED4F
:1055F0001B0A04460D4610EE100AFBF716F89FED45
:10560000151B53EC112BFAF7A1FF0B4602468DE850
:10561000FC0012A2602106A800F0EEFC82B2642316
:1056200006A90A48FDF77FFE64230A2215A1074850
:10563000FDF779FE1EB0BDE8F081000053544152E1
:10564000545F4F444F4D0D0A000000003805002004
:1056500000000020A089B0E1E91502406F646F6D81
:105660003A7B2278223A252E33662C2279223A255B
:105670002E33662C22796177223A252E31667D0DF4
:105680000A000000454E445F4F444F4D0D0A000094
:1056900070B5204C607A00283AD004F1800594ED72
:1056A0001B0AD5ED030A95ED041A30EE600AD4ED1D
:1056B0001C0A70EEC10A20EE000A00EEA00A01F0FA
:1056C000CBF8D5ED050AB4EEE00AF1EE10FA1FDBD7
:1056D0000020607260709FED100AA07084ED110AC6
:1056E00084ED120AA0710D4880ED030A80ED040AD2
:1056F000303080ED030A80ED040A3030002180ED67
:10570000030A80ED040ABDE870400846FBF742BD7D
:1057100070BD0000000000200000000040030020D9
:105720000848B0EEC00AA0F1800180ED050A91EDB5
:105730001B0A80ED030A91ED1C0A80ED040A01208A
:105740004872704780000020FCF792BC30B593B0DF
:1057500034216846FAF7CFFD14210DA8FAF7CBFDE6
:1057600020480025016841F080510160006800F088
:10577000805012901C48016841F44041016000686B
:10578000022400F440401290012003901020049065
:10579000009406940820CDE90750B420CDE909040F
:1057A0000B9468460C94FCF73BFE08B172B6FEE71A
:1057B000FCF7FAFC08B172B6FEE70DA90F2081E8EC
:1057C00031004FF4A05010904FF4805011900521FB
:1057D0000DA8FCF721FD002801D072B6FEE713B03A
:1057E00030BD0000403802400070004002480168AF
:1057F00041F470010160704788ED00E0F0B5026887
:10580000274B284D284E294F294C4FF0804C984269
:1058100009D0604507D0A84205D0B04203D0B842B5
:1058200001D0A04204D122F0700E4A6842EA0E0272
:1058300098421BD0604519D0A84217D0B04215D06D
:10584000B84213D0A04211D01A4DA8420ED01A4D22
:10585000A8420BD0194DA84208D0194DA84205D036
:10586000184DA84202D0184DA84203D122F4407529
:10587000CA682A434D6922F080022A438D68C562B6
:105880000D688562984201D0A04201D10969016387
:10589000016841F004010160012141610260F0BD35
:1058A000000001400004004000080040000C0040DF
:1058B0000004014000400140004401400048014014
:1058C00000180040001C00400020004010B501F00E
:1058D0001F030121046A99408C430462016A9A40C3
:1058E0001143016210BD0000F0B5036A026A22F0A4
:1058F0000102026242688469124E24F073050C684A
:105900002C4323F002058B682B430D4DA84201D098
:10591000B04205D123F00807CB683B4323F00403D2
:10592000A84201D0B04205D14D6922F4407215431E
:105930008A692A4342608461496841630362F0BD19
:105940000000014000040140F0B5026A036A23F040
:1059500010030362436884690D6824F4E64444EA52
:1059600005248D6822F0200242EA05120F4D104EE8
:10597000A84201D0B04206D1CF6822F0800242EAAC
:10598000071222F04002A84201D0B04207D14D696F
:1059900023F4406343EA85038D6943EA850343604A
:1059A0008461496881630262F0BD0000000001402B
:1059B00000040140F0B5026A036A23F480730362B5
:1059C0004368C46922F4007224F073050C68124E17
:1059D0002C438D6842EA05220E4DA84201D0B04208
:1059E00006D1CF6822F4006242EA072222F48062E4
:1059F000A84201D0B04207D14D6923F4405343EA95
:105A000005138D6943EA05134360C4614968C163A6
:105A10000262F0BD000001400004014030B5046A9C
:105A2000026A22F4805202624268C3690D6823F45C
:105A3000E64343EA05238D6824F4005444EA053420
:105A4000084DA84202D0084DA84204D14D6922F465
:105A5000804242EA85124260C3614968016404627F
:105A600030BD0000000001400004014010B5806B13
:105A70000021C185FDF733F910BD70B5846B206836
:105A8000406994F84110C0F3C0100025212904D1C9
:105A900018B1E584204600F08EF82068406994F83B
:105AA0004210C0F38010222904D118B1E5852046A8
:105AB00000F05AF8606C40F0100060642046FDF77A
:105AC0000EF970BD10B50146806B096809684FF08A
:105AD0000002C9052ED4C28501680C3151E8003F8F
